{
  "contractName": "Data",
  "abi": [
    {
      "inputs": [],
      "payable": false,
      "stateMutability": "nonpayable",
      "type": "constructor"
    },
    {
      "payable": true,
      "stateMutability": "payable",
      "type": "fallback"
    },
    {
      "constant": true,
      "inputs": [],
      "name": "isPaused",
      "outputs": [
        {
          "name": "",
          "type": "bool"
        }
      ],
      "payable": false,
      "stateMutability": "view",
      "type": "function"
    },
    {
      "constant": false,
      "inputs": [
        {
          "name": "status",
          "type": "bool"
        }
      ],
      "name": "setPauseStatus",
      "outputs": [],
      "payable": false,
      "stateMutability": "nonpayable",
      "type": "function"
    },
    {
      "constant": false,
      "inputs": [],
      "name": "addFunds",
      "outputs": [],
      "payable": true,
      "stateMutability": "payable",
      "type": "function"
    },
    {
      "constant": true,
      "inputs": [],
      "name": "getBalance",
      "outputs": [
        {
          "name": "",
          "type": "uint256"
        }
      ],
      "payable": false,
      "stateMutability": "view",
      "type": "function"
    },
    {
      "constant": true,
      "inputs": [],
      "name": "getBonusPool",
      "outputs": [
        {
          "name": "",
          "type": "uint256"
        }
      ],
      "payable": false,
      "stateMutability": "view",
      "type": "function"
    },
    {
      "constant": true,
      "inputs": [],
      "name": "checkMove",
      "outputs": [
        {
          "name": "",
          "type": "bool"
        }
      ],
      "payable": false,
      "stateMutability": "view",
      "type": "function"
    },
    {
      "constant": false,
      "inputs": [],
      "name": "setBet",
      "outputs": [],
      "payable": true,
      "stateMutability": "payable",
      "type": "function"
    },
    {
      "constant": false,
      "inputs": [
        {
          "name": "_address",
          "type": "address"
        }
      ],
      "name": "win",
      "outputs": [],
      "payable": false,
      "stateMutability": "nonpayable",
      "type": "function"
    },
    {
      "constant": false,
      "inputs": [
        {
          "name": "_address1",
          "type": "address"
        },
        {
          "name": "_address2",
          "type": "address"
        }
      ],
      "name": "draw",
      "outputs": [],
      "payable": false,
      "stateMutability": "nonpayable",
      "type": "function"
    }
  ],
  "bytecode": "0x608060405234801561001057600080fd5b506000808190555060006001819055506000600260006101000a81548160ff02191690831515021790555033600260016101000a81548173ffffffffffffffffffffffffffffffffffffffff021916908373ffffffffffffffffffffffffffffffffffffffff1602179055506000600260156101000a81548160ff0219169083151502179055506000600260166101000a81548160ff021916908315150217905550610ad7806100c16000396000f3fe608060405260043610610093576000357c0100000000000000000000000000000000000000000000000000000000900480630b033ac21461009557806312065fe014610106578063a26759cb14610131578063a34cc8451461013b578063b187bd261461018c578063b84aa065146101bb578063c38bb537146101c5578063ccc378cf14610202578063d6aab01514610231575b005b3480156100a157600080fd5b50610104600480360360408110156100b857600080fd5b81019080803573ffffffffffffffffffffffffffffffffffffffff169060200190929190803573ffffffffffffffffffffffffffffffffffffffff16906020019092919050505061025c565b005b34801561011257600080fd5b5061011b6103ad565b6040518082815260200191505060405180910390f35b6101396103cc565b005b34801561014757600080fd5b5061018a6004803603602081101561015e57600080fd5b81019080803573ffffffffffffffffffffffffffffffffffffffff16906020019092919050505061048c565b005b34801561019857600080fd5b506101a1610631565b604051808215151515815260200191505060405180910390f35b6101c3610648565b005b3480156101d157600080fd5b50610200600480360360208110156101e857600080fd5b810190808035151590602001909291905050506107ce565b005b34801561020e57600080fd5b506102176108b0565b604051808215151515815260200191505060405180910390f35b34801561023d57600080fd5b506102466108c7565b6040518082815260200191505060405180910390f35b60001515600260009054906101000a900460ff1615151415156102e7576040517f08c379a00000000000000000000000000000000000000000000000000000000081526004018080602001828103825260128152602001807f436f6e747261637420697320706175736564000000000000000000000000000081525060200191505060405180910390fd5b600260159054906101000a900460ff16801561030f5750600260169054906101000a900460ff165b15156103a9576040517f08c379a00000000000000000000000000000000000000000000000000000000081526004018080602001828103825260228152602001807f47616d65206d75737420626520636f6d706c65746520746f2063616c6c20746881526020017f697300000000000000000000000000000000000000000000000000000000000081525060400191505060405180910390fd5b5050565b60003073ffffffffffffffffffffffffffffffffffffffff1631905090565b34670de0b6b3a76400008110151515610473576040517f08c379a000000000000000000000000000000000000000000000000000000000815260040180806020018281038252602d8152602001807f41726520796f7520676f696e6720746f2070617920666f7220746861743f202081526020017f4d696e2e2069732031204554480000000000000000000000000000000000000081525060400191505060405180910390fd5b610488346001546108d190919063ffffffff16565b5050565b60001515600260009054906101000a900460ff161515141515610517576040517f08c379a00000000000000000000000000000000000000000000000000000000081526004018080602001828103825260128152602001807f436f6e747261637420697320706175736564000000000000000000000000000081525060200191505060405180910390fd5b600260159054906101000a900460ff16801561053f5750600260169054906101000a900460ff165b15156105d9576040517f08c379a00000000000000000000000000000000000000000000000000000000081526004018080602001828103825260228152602001807f47616d65206d75737420626520636f6d706c65746520746f2063616c6c20746881526020017f697300000000000000000000000000000000000000000000000000000000000081525060400191505060405180910390fd5b61062d600054600360008473ffffffffffffffffffffffffffffffffffffffff1673ffffffffffffffffffffffffffffffffffffffff168152602001908152602001600020546108d190919063ffffffff16565b5050565b6000600260009054906101000a900460ff16905090565b60001515600260009054906101000a900460ff1615151415156106d3576040517f08c379a00000000000000000000000000000000000000000000000000000000081526004018080602001828103825260128152602001807f436f6e747261637420697320706175736564000000000000000000000000000081525060200191505060405180910390fd5b34670de0b6b3a7640000811015151561077a576040517f08c379a000000000000000000000000000000000000000000000000000000000815260040180806020018281038252602d8152602001807f41726520796f7520676f696e6720746f2070617920666f7220746861743f202081526020017f4d696e2e2069732031204554480000000000000000000000000000000000000081525060400191505060405180910390fd5b346000808282540192505081905550600260159054906101000a900460ff16156107ab576107a661095b565b6107cb565b600260159054906101000a900460ff1615156107ca576107c9610a03565b5b5b50565b600260019054906101000a900473ffffffffffffffffffffffffffffffffffffffff1673ffffffffffffffffffffffffffffffffffffffff163373ffffffffffffffffffffffffffffffffffffffff16141515610893576040517f08c379a000000000000000000000000000000000000000000000000000000000815260040180806020018281038252601f8152602001807f596f75277265206e6f7420746865206f776e65722e2020476f20617761792e0081525060200191505060405180910390fd5b80600260006101000a81548160ff02191690831515021790555050565b6000600260159054906101000a900460ff16905090565b6000600154905090565b6000808284019050838110151515610951576040517f08c379a000000000000000000000000000000000000000000000000000000000815260040180806020018281038252601b8152602001807f536166654d6174683a206164646974696f6e206f766572666c6f77000000000081525060200191505060405180910390fd5b8091505092915050565b60001515600260009054906101000a900460ff1615151415156109e6576040517f08c379a00000000000000000000000000000000000000000000000000000000081526004018080602001828103825260128152602001807f436f6e747261637420697320706175736564000000000000000000000000000081525060200191505060405180910390fd5b6001600260166101000a81548160ff021916908315150217905550565b60001515600260009054906101000a900460ff161515141515610a8e576040517f08c379a00000000000000000000000000000000000000000000000000000000081526004018080602001828103825260128152602001807f436f6e747261637420697320706175736564000000000000000000000000000081525060200191505060405180910390fd5b6001600260156101000a81548160ff02191690831515021790555056fea165627a7a723058207988de79cfb1a708ed577c59be3f43f0b8db86e15f65848402702ab7efabca230029",
  "source": "pragma solidity >=0.4.21 <0.7.0;\n\nimport \"../node_modules/openzeppelin-solidity/contracts/math/SafeMath.sol\";\n\ncontract Data {\n\n    ////////////////////////////////// Globals ////////////////////////////////\n\n    using SafeMath for uint256;\n\n\n    // 'balance' is only the funds for the current open game\n    uint256 balance;\n    // 'bonusPool' is the total of all funds in the bonus pool\n    uint256 bonusPool;\n    // If contract is currently paused or not\n    bool pauseStatus;\n    // Currently set to the deployer address at migration\n    address owner;\n    // Shows if first move is made\n    bool firstMove;\n    // Shows if second move is made\n    bool secondMove;\n    // Mapping for storing winnings\n    mapping(address => uint256) private winnings;\n\n    constructor() \n        public \n        {\n        balance = 0;\n        bonusPool = 0;\n        pauseStatus = false;\n        owner = msg.sender;\n        firstMove = false;\n        secondMove = false;\n        }\n\n    ////////////////////////////////// Modifiers ////////////////////////////////\n\n    // Sets the owner of the contract to the deployer.  Add more functionality\n    // to add/remove authorized users, change owners, etc. if desired\n    modifier requireOwner() {\n        require(msg.sender == owner, \"You're not the owner.  Go away.\");\n        _;\n    }\n\n    modifier requireUnpaused() {\n        require(pauseStatus == false, \"Contract is paused\");\n        _;\n    }\n\n    modifier requireMoney(uint256 amnt) {\n        require(amnt >= 1 ether, \"Are you going to pay for that?  Min. is 1 ETH\");\n        _;\n    }\n\n    modifier requireComplete() {\n        require( (firstMove && secondMove) , \"Game must be complete to call this\");\n        _;\n    }\n\n    ////////////////////////////////// Utilities ////////////////////////////////\n\n    // Checks if contract is paused\n    function isPaused() \n        public \n        view \n        returns(bool) \n        {\n            return pauseStatus;\n        }\n\n    // Pauses/unpauses the contract - Set to only be modified by deployer\n    function setPauseStatus(bool status)\n        external\n        requireOwner \n        {\n            pauseStatus = status;\n        }\n\n    // Adds funds to the bonus pool, in case they somehow run dry\n    // INCLUDE TRANSACTION\n    function addFunds() \n        external\n        payable\n        requireMoney(msg.value)\n        {\n            bonusPool.add(msg.value);\n        }\n\n    // Getter that returns contract balance\n    function getBalance()\n        external\n        view\n        returns(uint256)\n        {\n            return address(this).balance;\n        }\n\n    // Getter that returns bonus pool balance\n    function getBonusPool()\n        external\n        view\n        returns(uint256)\n        {\n            return bonusPool;\n        }\n\n    function checkMove()\n        external\n        view\n        returns(bool)\n        {\n            return firstMove;\n        }\n\n    ///////////////////////////////// Functionality ///////////////////////////////\n\n    function setBet()\n        external\n        payable\n        requireUnpaused\n        requireMoney(msg.value)\n        {\n            // increase balance by incoming amount\n            balance += msg.value;\n            // set move depending on where the current status is\n            if (firstMove) {\n                move2();\n            } else if (!firstMove) {\n                move1();\n            }\n        }\n\n    function move1()\n        private\n        requireUnpaused\n        {\n            firstMove = true;\n        }\n\n    function move2()\n        private\n        requireUnpaused\n        {\n            secondMove = true;\n        }\n\n    function win(address _address)\n        external\n        requireUnpaused\n        requireComplete\n        {\n            // Credit current balance to winner DO NOT transfer\n            winnings[_address].add(balance);\n            // If bonus is available, add that as well\n        }\n\n    function draw(address _address1, address _address2)\n        external\n        requireUnpaused\n        requireComplete\n        {\n            // Use SafeMath to devide balance in half\n            // Send half of the balance to bonusPool\n            // Split remaining half of balance in half again\n            // Credit half to each argument addresss\n        }\n\n    ///////////////////////////////// Fallback ///////////////////////////////\n    function() \n        external\n        payable\n        {\n            //Since we all need that payable fallback function...\n        }\n}",
  "sourcePath": "/Users/brent/Documents/R_P_S/contracts/Data.sol",
  "compiler": {
    "name": "solc",
    "version": "0.5.1+commit.c8a2cb62.Emscripten.clang"
  },
  "schemaVersion": "3.4.0",
  "updatedAt": "2021-05-31T08:42:54.535Z",
  "networkType": "ethereum",
  "devdoc": {
    "methods": {}
  },
  "userdoc": {
    "methods": {
      "isPaused()": {
        "notice": "/////////////////////////////// Utilities ////////////////////////////////"
      },
      "setBet()": {
        "notice": "////////////////////////////// Functionality ///////////////////////////////"
      }
    }
  }
}