{
  "contractName": "Data",
  "abi": [
    {
      "constant": true,
      "inputs": [],
      "name": "authLogic",
      "outputs": [
        {
          "name": "",
          "type": "address"
        }
      ],
      "payable": false,
      "stateMutability": "view",
      "type": "function"
    },
    {
      "constant": true,
      "inputs": [
        {
          "name": "",
          "type": "address"
        }
      ],
      "name": "winnings",
      "outputs": [
        {
          "name": "",
          "type": "uint256"
        }
      ],
      "payable": false,
      "stateMutability": "view",
      "type": "function"
    },
    {
      "constant": true,
      "inputs": [],
      "name": "openGame",
      "outputs": [
        {
          "name": "",
          "type": "bool"
        }
      ],
      "payable": false,
      "stateMutability": "view",
      "type": "function"
    },
    {
      "inputs": [],
      "payable": false,
      "stateMutability": "nonpayable",
      "type": "constructor"
    },
    {
      "payable": true,
      "stateMutability": "payable",
      "type": "fallback"
    },
    {
      "constant": true,
      "inputs": [],
      "name": "isPaused",
      "outputs": [
        {
          "name": "",
          "type": "bool"
        }
      ],
      "payable": false,
      "stateMutability": "view",
      "type": "function"
    },
    {
      "constant": false,
      "inputs": [
        {
          "name": "status",
          "type": "bool"
        }
      ],
      "name": "setPauseStatus",
      "outputs": [],
      "payable": false,
      "stateMutability": "nonpayable",
      "type": "function"
    },
    {
      "constant": false,
      "inputs": [
        {
          "name": "newLogicContract",
          "type": "address"
        }
      ],
      "name": "setAuthLogic",
      "outputs": [],
      "payable": false,
      "stateMutability": "nonpayable",
      "type": "function"
    },
    {
      "constant": false,
      "inputs": [],
      "name": "addFunds",
      "outputs": [],
      "payable": true,
      "stateMutability": "payable",
      "type": "function"
    },
    {
      "constant": true,
      "inputs": [],
      "name": "getOwner",
      "outputs": [
        {
          "name": "",
          "type": "address"
        }
      ],
      "payable": false,
      "stateMutability": "view",
      "type": "function"
    },
    {
      "constant": true,
      "inputs": [],
      "name": "getAuthLogic",
      "outputs": [
        {
          "name": "",
          "type": "address"
        }
      ],
      "payable": false,
      "stateMutability": "view",
      "type": "function"
    },
    {
      "constant": true,
      "inputs": [],
      "name": "isOpen",
      "outputs": [
        {
          "name": "",
          "type": "bool"
        }
      ],
      "payable": false,
      "stateMutability": "view",
      "type": "function"
    },
    {
      "constant": true,
      "inputs": [],
      "name": "getBalance",
      "outputs": [
        {
          "name": "",
          "type": "uint256"
        }
      ],
      "payable": false,
      "stateMutability": "view",
      "type": "function"
    },
    {
      "constant": true,
      "inputs": [],
      "name": "dataBalance",
      "outputs": [
        {
          "name": "",
          "type": "uint256"
        }
      ],
      "payable": false,
      "stateMutability": "view",
      "type": "function"
    },
    {
      "constant": true,
      "inputs": [],
      "name": "getBonusPool",
      "outputs": [
        {
          "name": "",
          "type": "uint256"
        }
      ],
      "payable": false,
      "stateMutability": "view",
      "type": "function"
    },
    {
      "constant": false,
      "inputs": [
        {
          "name": "game",
          "type": "bool"
        }
      ],
      "name": "setGame",
      "outputs": [],
      "payable": false,
      "stateMutability": "nonpayable",
      "type": "function"
    },
    {
      "constant": false,
      "inputs": [
        {
          "name": "bonus",
          "type": "uint256"
        }
      ],
      "name": "addToBonus",
      "outputs": [],
      "payable": false,
      "stateMutability": "nonpayable",
      "type": "function"
    },
    {
      "constant": false,
      "inputs": [
        {
          "name": "payout",
          "type": "uint256"
        }
      ],
      "name": "bonusPayout",
      "outputs": [],
      "payable": false,
      "stateMutability": "nonpayable",
      "type": "function"
    },
    {
      "constant": false,
      "inputs": [
        {
          "name": "winner",
          "type": "address"
        },
        {
          "name": "winning",
          "type": "uint256"
        },
        {
          "name": "bonus",
          "type": "uint256"
        }
      ],
      "name": "addWinnings",
      "outputs": [],
      "payable": false,
      "stateMutability": "nonpayable",
      "type": "function"
    },
    {
      "constant": false,
      "inputs": [],
      "name": "fund",
      "outputs": [],
      "payable": true,
      "stateMutability": "payable",
      "type": "function"
    },
    {
      "constant": true,
      "inputs": [
        {
          "name": "_address",
          "type": "address"
        }
      ],
      "name": "checkWinnings",
      "outputs": [
        {
          "name": "",
          "type": "uint256"
        }
      ],
      "payable": false,
      "stateMutability": "view",
      "type": "function"
    },
    {
      "constant": false,
      "inputs": [
        {
          "name": "_address",
          "type": "address"
        }
      ],
      "name": "withdraw",
      "outputs": [],
      "payable": false,
      "stateMutability": "nonpayable",
      "type": "function"
    }
  ],
  "bytecode": "0x608060405234801561001057600080fd5b506000808190555060006001819055506000600260006101000a81548160ff02191690831515021790555033600260016101000a81548173ffffffffffffffffffffffffffffffffffffffff021916908373ffffffffffffffffffffffffffffffffffffffff1602179055506000600360146101000a81548160ff0219169083151502179055506117e9806100a66000396000f3fe60806040526004361061010c576000357c010000000000000000000000000000000000000000000000000000000090048063112b2b071461010e57806312065fe01461014b5780632c7f44911461017657806347535d7b146101c7578063512befd2146101f657806351cff8d91461025b578063536125fb146102ac57806363265d16146102e757806378a1c5f61461031257806380b4610614610369578063893d20e8146103a457806395f1f637146103fb578063a26759cb14610452578063b187bd261461045c578063b60d42881461048b578063c38bb53714610495578063c6e1f059146104d2578063d6aab01514610537578063ea3a149914610562578063fa12d782146105c7575b005b34801561011a57600080fd5b506101496004803603602081101561013157600080fd5b810190808035151590602001909291905050506105f6565b005b34801561015757600080fd5b50610160610789565b6040518082815260200191505060405180910390f35b34801561018257600080fd5b506101c56004803603602081101561019957600080fd5b81019080803573ffffffffffffffffffffffffffffffffffffffff169060200190929190505050610792565b005b3480156101d357600080fd5b506101dc61089b565b604051808215151515815260200191505060405180910390f35b34801561020257600080fd5b506102596004803603606081101561021957600080fd5b81019080803573ffffffffffffffffffffffffffffffffffffffff16906020019092919080359060200190929190803590602001909291905050506108b2565b005b34801561026757600080fd5b506102aa6004803603602081101561027e57600080fd5b81019080803573ffffffffffffffffffffffffffffffffffffffff169060200190929190505050610af5565b005b3480156102b857600080fd5b506102e5600480360360208110156102cf57600080fd5b8101908080359060200190929190505050610d33565b005b3480156102f357600080fd5b506102fc610ee2565b6040518082815260200191505060405180910390f35b34801561031e57600080fd5b50610327610f01565b604051808273ffffffffffffffffffffffffffffffffffffffff1673ffffffffffffffffffffffffffffffffffffffff16815260200191505060405180910390f35b34801561037557600080fd5b506103a26004803603602081101561038c57600080fd5b8101908080359060200190929190505050610f27565b005b3480156103b057600080fd5b506103b96110bb565b604051808273ffffffffffffffffffffffffffffffffffffffff1673ffffffffffffffffffffffffffffffffffffffff16815260200191505060405180910390f35b34801561040757600080fd5b506104106110e5565b604051808273ffffffffffffffffffffffffffffffffffffffff1673ffffffffffffffffffffffffffffffffffffffff16815260200191505060405180910390f35b61045a6111d4565b005b34801561046857600080fd5b50610471611293565b604051808215151515815260200191505060405180910390f35b6104936112aa565b005b3480156104a157600080fd5b506104d0600480360360208110156104b857600080fd5b8101908080351515906020019092919050505061143d565b005b3480156104de57600080fd5b50610521600480360360208110156104f557600080fd5b81019080803573ffffffffffffffffffffffffffffffffffffffff16906020019092919050505061151f565b6040518082815260200191505060405180910390f35b34801561054357600080fd5b5061054c6115f2565b6040518082815260200191505060405180910390f35b34801561056e57600080fd5b506105b16004803603602081101561058557600080fd5b81019080803573ffffffffffffffffffffffffffffffffffffffff1690602001909291905050506115fc565b6040518082815260200191505060405180910390f35b3480156105d357600080fd5b506105dc611614565b604051808215151515815260200191505060405180910390f35b600360009054906101000a900473ffffffffffffffffffffffffffffffffffffffff1673ffffffffffffffffffffffffffffffffffffffff163373ffffffffffffffffffffffffffffffffffffffff161415156106e1576040517f08c379a00000000000000000000000000000000000000000000000000000000081526004018080602001828103825260238152602001807f596f75277265206e6f7420746865204c6f67696320666f72207468697320446181526020017f74612e000000000000000000000000000000000000000000000000000000000081525060400191505060405180910390fd5b60001515600260009054906101000a900460ff16151514151561076c576040517f08c379a00000000000000000000000000000000000000000000000000000000081526004018080602001828103825260128152602001807f436f6e747261637420697320706175736564000000000000000000000000000081525060200191505060405180910390fd5b80600360146101000a81548160ff02191690831515021790555050565b60008054905090565b600260019054906101000a900473ffffffffffffffffffffffffffffffffffffffff1673ffffffffffffffffffffffffffffffffffffffff163373ffffffffffffffffffffffffffffffffffffffff16141515610857576040517f08c379a000000000000000000000000000000000000000000000000000000000815260040180806020018281038252601f8152602001807f596f75277265206e6f7420746865206f776e65722e2020476f20617761792e0081525060200191505060405180910390fd5b80600360006101000a81548173ffffffffffffffffffffffffffffffffffffffff021916908373ffffffffffffffffffffffffffffffffffffffff16021790555050565b6000600360149054906101000a900460ff16905090565b600360009054906101000a900473ffffffffffffffffffffffffffffffffffffffff1673ffffffffffffffffffffffffffffffffffffffff163373ffffffffffffffffffffffffffffffffffffffff1614151561099d576040517f08c379a00000000000000000000000000000000000000000000000000000000081526004018080602001828103825260238152602001807f596f75277265206e6f7420746865204c6f67696320666f72207468697320446181526020017f74612e000000000000000000000000000000000000000000000000000000000081525060400191505060405180910390fd5b60001515600260009054906101000a900460ff161515141515610a28576040517f08c379a00000000000000000000000000000000000000000000000000000000081526004018080602001828103825260128152602001807f436f6e747261637420697320706175736564000000000000000000000000000081525060200191505060405180910390fd5b610a3d8260005461162790919063ffffffff16565b6000819055506000610a58828461167190919063ffffffff16565b9050610aac81600460008773ffffffffffffffffffffffffffffffffffffffff1673ffffffffffffffffffffffffffffffffffffffff1681526020019081526020016000205461167190919063ffffffff16565b600460008673ffffffffffffffffffffffffffffffffffffffff1673ffffffffffffffffffffffffffffffffffffffff1681526020019081526020016000208190555050505050565b60001515600260009054906101000a900460ff161515141515610b80576040517f08c379a00000000000000000000000000000000000000000000000000000000081526004018080602001828103825260128152602001807f436f6e747261637420697320706175736564000000000000000000000000000081525060200191505060405180910390fd5b806000600460008373ffffffffffffffffffffffffffffffffffffffff1673ffffffffffffffffffffffffffffffffffffffff16815260200190815260200160002054111515610c5e576040517f08c379a00000000000000000000000000000000000000000000000000000000081526004018080602001828103825260288152602001807f596f7520646f6e2774206861766520616e792077696e6e696e67732073746f7281526020017f656420686572652e00000000000000000000000000000000000000000000000081525060400191505060405180910390fd5b6000600460008473ffffffffffffffffffffffffffffffffffffffff1673ffffffffffffffffffffffffffffffffffffffff1681526020019081526020016000205490506000600460008573ffffffffffffffffffffffffffffffffffffffff1673ffffffffffffffffffffffffffffffffffffffff168152602001908152602001600020819055508273ffffffffffffffffffffffffffffffffffffffff166108fc829081150290604051600060405180830381858888f19350505050158015610d2d573d6000803e3d6000fd5b50505050565b600360009054906101000a900473ffffffffffffffffffffffffffffffffffffffff1673ffffffffffffffffffffffffffffffffffffffff163373ffffffffffffffffffffffffffffffffffffffff16141515610e1e576040517f08c379a00000000000000000000000000000000000000000000000000000000081526004018080602001828103825260238152602001807f596f75277265206e6f7420746865204c6f67696320666f72207468697320446181526020017f74612e000000000000000000000000000000000000000000000000000000000081525060400191505060405180910390fd5b60001515600260009054906101000a900460ff161515141515610ea9576040517f08c379a00000000000000000000000000000000000000000000000000000000081526004018080602001828103825260128152602001807f436f6e747261637420697320706175736564000000000000000000000000000081525060200191505060405180910390fd5b610ebe8160005461162790919063ffffffff16565b600081905550610ed98160015461167190919063ffffffff16565b60018190555050565b60003073ffffffffffffffffffffffffffffffffffffffff1631905090565b600360009054906101000a900473ffffffffffffffffffffffffffffffffffffffff1681565b600360009054906101000a900473ffffffffffffffffffffffffffffffffffffffff1673ffffffffffffffffffffffffffffffffffffffff163373ffffffffffffffffffffffffffffffffffffffff16141515611012576040517f08c379a00000000000000000000000000000000000000000000000000000000081526004018080602001828103825260238152602001807f596f75277265206e6f7420746865204c6f67696320666f72207468697320446181526020017f74612e000000000000000000000000000000000000000000000000000000000081525060400191505060405180910390fd5b60001515600260009054906101000a900460ff16151514151561109d576040517f08c379a00000000000000000000000000000000000000000000000000000000081526004018080602001828103825260128152602001807f436f6e747261637420697320706175736564000000000000000000000000000081525060200191505060405180910390fd5b6110b28160015461162790919063ffffffff16565b60018190555050565b6000600260019054906101000a900473ffffffffffffffffffffffffffffffffffffffff16905090565b6000600260019054906101000a900473ffffffffffffffffffffffffffffffffffffffff1673ffffffffffffffffffffffffffffffffffffffff163373ffffffffffffffffffffffffffffffffffffffff161415156111ac576040517f08c379a000000000000000000000000000000000000000000000000000000000815260040180806020018281038252601f8152602001807f596f75277265206e6f7420746865206f776e65722e2020476f20617761792e0081525060200191505060405180910390fd5b600360009054906101000a900473ffffffffffffffffffffffffffffffffffffffff16905090565b34670de0b6b3a76400008114151561127a576040517f08c379a000000000000000000000000000000000000000000000000000000000815260040180806020018281038252602d8152602001807f41726520796f7520676f696e6720746f2070617920666f7220746861743f202081526020017f4d696e2e2069732031204554480000000000000000000000000000000000000081525060400191505060405180910390fd5b61128f3460015461167190919063ffffffff16565b5050565b6000600260009054906101000a900460ff16905090565b600360009054906101000a900473ffffffffffffffffffffffffffffffffffffffff1673ffffffffffffffffffffffffffffffffffffffff163373ffffffffffffffffffffffffffffffffffffffff16141515611395576040517f08c379a00000000000000000000000000000000000000000000000000000000081526004018080602001828103825260238152602001807f596f75277265206e6f7420746865204c6f67696320666f72207468697320446181526020017f74612e000000000000000000000000000000000000000000000000000000000081525060400191505060405180910390fd5b60001515600260009054906101000a900460ff161515141515611420576040517f08c379a00000000000000000000000000000000000000000000000000000000081526004018080602001828103825260128152602001807f436f6e747261637420697320706175736564000000000000000000000000000081525060200191505060405180910390fd5b6114353460005461167190919063ffffffff16565b600081905550565b600260019054906101000a900473ffffffffffffffffffffffffffffffffffffffff1673ffffffffffffffffffffffffffffffffffffffff163373ffffffffffffffffffffffffffffffffffffffff16141515611502576040517f08c379a000000000000000000000000000000000000000000000000000000000815260040180806020018281038252601f8152602001807f596f75277265206e6f7420746865206f776e65722e2020476f20617761792e0081525060200191505060405180910390fd5b80600260006101000a81548160ff02191690831515021790555050565b6000801515600260009054906101000a900460ff1615151415156115ab576040517f08c379a00000000000000000000000000000000000000000000000000000000081526004018080602001828103825260128152602001807f436f6e747261637420697320706175736564000000000000000000000000000081525060200191505060405180910390fd5b600460008373ffffffffffffffffffffffffffffffffffffffff1673ffffffffffffffffffffffffffffffffffffffff168152602001908152602001600020549050919050565b6000600154905090565b60046020528060005260406000206000915090505481565b600360149054906101000a900460ff1681565b600061166983836040805190810160405280601e81526020017f536166654d6174683a207375627472616374696f6e206f766572666c6f7700008152506116fb565b905092915050565b60008082840190508381101515156116f1576040517f08c379a000000000000000000000000000000000000000000000000000000000815260040180806020018281038252601b8152602001807f536166654d6174683a206164646974696f6e206f766572666c6f77000000000081525060200191505060405180910390fd5b8091505092915050565b600083831115829015156117aa576040517f08c379a00000000000000000000000000000000000000000000000000000000081526004018080602001828103825283818151815260200191508051906020019080838360005b8381101561176f578082015181840152602081019050611754565b50505050905090810190601f16801561179c5780820380516001836020036101000a031916815260200191505b509250505060405180910390fd5b506000838503905080915050939250505056fea165627a7a723058204b5d6643ee4479fb0125805e32b77661fe957170e1ac8e8fa4047f00ceac7eb30029",
  "source": "pragma solidity >=0.4.21 <0.7.0;\n\nimport \"../node_modules/openzeppelin-solidity/contracts/math/SafeMath.sol\";\n\ncontract Data {\n\n    ////////////////////////////////// Globals ////////////////////////////////\n\n    using SafeMath for uint256;\n\n\n    // 'balance' is only the funds for the current open game\n    uint256 balance;\n    // 'bonusPool' is the total of all funds in the bonus pool\n    uint256 bonusPool;\n    // If contract is currently paused or not\n    bool pauseStatus;\n    // Currently set to the deployer address at migration\n    address private owner;\n    // The Logic contract's address\n    // Set to single address instead of array - one logic contract at a time\n    address public authLogic;\n    // Boolean for setting/checking if a game is currently open\n    bool public openGame;\n    // Mapping for storing winnings\n    // Possibility for future expansion - Use this store of funds for betting\n    mapping(address => uint256) public winnings;\n\n    constructor() \n        public \n        {\n        balance = 0;\n        bonusPool = 0;\n        pauseStatus = false;\n        owner = msg.sender;\n        openGame = false;\n        }\n\n    ////////////////////////////////// Modifiers ////////////////////////////////\n\n    // Sets the owner of the contract to the deployer.  Add more functionality\n    // to add/remove authorized users, change owners, etc. if desired\n    modifier requireOwner() {\n        require(msg.sender == owner, \"You're not the owner.  Go away.\");\n        _;\n    }\n\n    // Checks that the sender is the approved logic file\n    modifier requireAuthLogic() {\n        require(msg.sender == authLogic, \"You're not the Logic for this Data.\");\n        _;\n    }\n\n    modifier requireUnpaused() {\n        require(pauseStatus == false, \"Contract is paused\");\n        _;\n    }\n\n    modifier requireMoney(uint256 amnt) {\n        require(amnt == 1 ether, \"Are you going to pay for that?  Min. is 1 ETH\");\n        _;\n    }\n\n    modifier requireWinnings(address _address) {\n        require(winnings[_address] > 0, \"You don't have any winnings stored here.\");\n        _;\n    }\n\n    ////////////////////////////////// Utilities ////////////////////////////////\n\n    // Checks if contract is paused\n    function isPaused() \n        public \n        view\n        returns(bool) \n        {\n            return pauseStatus;\n        }\n\n    // Pauses/unpauses the contract - Set to only be modified by deployer\n    function setPauseStatus(bool status)\n        external\n        requireOwner \n        {\n            pauseStatus = status;\n        }\n\n    // Pauses/unpauses the contract - Set to only be modified by deployer\n    function setAuthLogic(address newLogicContract)\n        external\n        requireOwner \n        {\n            authLogic = newLogicContract;\n        }\n\n    // Adds funds to the bonus pool, in case they somehow run dry, and someone wants\n    // to top it off to insentivise players\n    function addFunds() \n        external\n        payable\n        requireMoney(msg.value)\n        {\n            bonusPool.add(msg.value);\n        }\n\n    function getOwner()\n        external\n        view\n        returns(address)\n        {\n            return owner;\n        }\n\n    // Getter function for testing the connection between contracts\n    function getAuthLogic()\n        external\n        view\n        requireOwner\n        returns(address)\n        {\n            return authLogic;\n        }\n\n    // Checks if there is currently a game open(first move played) or not\n    function isOpen() \n        external\n        view\n        returns(bool) \n        {\n            return openGame;\n        }\n\n    // Getter that returns contract balance\n    function getBalance()\n        external\n        view\n        returns(uint256)\n        {\n            return balance;\n        }\n\n    // For checking contract balance in testing\n    function dataBalance()\n        external\n        view\n        returns(uint256)\n        {\n            return address(this).balance;\n        }\n\n    // Getter that returns bonus pool balance\n    function getBonusPool()\n        external\n        view\n        returns(uint256)\n        {\n            return bonusPool;\n        }\n\n    ///////////////////////////////// Functionality ///////////////////////////////\n\n    // Sets the status of the game - if true, first move was played.  If false,\n    // there is currently not an open game, because the playing of the second move\n    // resolved the game\n    function setGame(bool game) \n        external\n        requireAuthLogic\n        requireUnpaused\n        {\n            openGame = game;\n        }\n    \n    function addToBonus(uint256 bonus)\n        external\n        requireAuthLogic\n        requireUnpaused\n        {\n            // Subtract the value to be added to bonusPool from balance\n            balance = balance.sub(bonus);\n            // Add value to bonusPool\n            bonusPool = bonusPool.add(bonus);\n        }\n\n    function bonusPayout(uint256 payout)\n        external\n        requireAuthLogic\n        requireUnpaused\n        {\n            // Subtract value that was paid out to winnings from the bonusPool\n            bonusPool = bonusPool.sub(payout);\n        }\n\n    function addWinnings(address winner, uint256 winning, uint256 bonus)\n        external\n        requireAuthLogic\n        requireUnpaused\n        {\n            // Subtract the winning amount from balance\n            balance = balance.sub(winning);\n            // Add bonus to winnings to create total payout (if no bonus, 'bonus' will be 0)\n            uint256 total = winning.add(bonus);\n            // Credit winner's account address with total payout\n            winnings[winner] = winnings[winner].add(total);\n        }\n    \n    function fund()\n        external\n        payable\n        requireAuthLogic\n        requireUnpaused\n        {\n            balance = balance.add(msg.value);\n        }\n\n    // Function that returns the argument address's winnings stored in the contract\n    // Returns 0 if none.\n    function checkWinnings(address _address)\n        public\n        view\n        requireUnpaused\n        returns(uint256)\n        {\n            return winnings[_address];\n        }\n\n    function withdraw(address payable _address)\n        public\n        requireUnpaused\n        requireWinnings(_address)\n        {\n            uint256 credit = winnings[_address];\n            winnings[_address] = 0;\n            _address.transfer(credit);\n        }\n\n    ///////////////////////////////// Fallback ///////////////////////////////\n    function() \n        external\n        payable\n        {\n            //Since we all need that payable fallback function...\n        }\n}",
  "sourcePath": "/Users/brent/Documents/R_P_S/contracts/Data.sol",
  "compiler": {
    "name": "solc",
    "version": "0.5.1+commit.c8a2cb62.Emscripten.clang"
  },
  "schemaVersion": "3.4.0",
  "updatedAt": "2021-06-09T16:53:30.917Z",
  "devdoc": {
    "methods": {}
  },
  "userdoc": {
    "methods": {
      "isPaused()": {
        "notice": "/////////////////////////////// Utilities ////////////////////////////////"
      },
      "setGame(bool)": {
        "notice": "////////////////////////////// Functionality ///////////////////////////////"
      }
    }
  }
}