{
  "contractName": "Logic",
  "abi": [
    {
      "inputs": [
        {
          "name": "dataContract",
          "type": "address"
        }
      ],
      "payable": false,
      "stateMutability": "nonpayable",
      "type": "constructor"
    },
    {
      "constant": true,
      "inputs": [],
      "name": "isPaused",
      "outputs": [
        {
          "name": "",
          "type": "bool"
        }
      ],
      "payable": false,
      "stateMutability": "view",
      "type": "function"
    },
    {
      "constant": true,
      "inputs": [],
      "name": "requiredBet",
      "outputs": [
        {
          "name": "",
          "type": "uint256"
        }
      ],
      "payable": false,
      "stateMutability": "view",
      "type": "function"
    },
    {
      "constant": false,
      "inputs": [
        {
          "name": "playerMove",
          "type": "uint8"
        }
      ],
      "name": "play",
      "outputs": [],
      "payable": true,
      "stateMutability": "payable",
      "type": "function"
    }
  ],
  "bytecode": "0x608060405234801561001057600080fd5b50604051602080610c458339810180604052602081101561003057600080fd5b810190808051906020019092919050505033600160006101000a81548173ffffffffffffffffffffffffffffffffffffffff021916908373ffffffffffffffffffffffffffffffffffffffff160217905550806000806101000a81548173ffffffffffffffffffffffffffffffffffffffff021916908373ffffffffffffffffffffffffffffffffffffffff16021790555050610b73806100d26000396000f3fe608060405260043610610051576000357c01000000000000000000000000000000000000000000000000000000009004806353a04b0514610056578063b187bd2614610087578063f33d0f3a146100b6575b600080fd5b6100856004803603602081101561006c57600080fd5b81019080803560ff1690602001909291905050506100e1565b005b34801561009357600080fd5b5061009c610524565b604051808215151515815260200191505060405180910390f35b3480156100c257600080fd5b506100cb6105e9565b6040518082815260200191505060405180910390f35b600015156100ed610524565b1515141515610164576040517f08c379a00000000000000000000000000000000000000000000000000000000081526004018080602001828103825260128152602001807f436f6e747261637420697320706175736564000000000000000000000000000081525060200191505060405180910390fd5b670de0b6b3a7640000341015151561020a576040517f08c379a000000000000000000000000000000000000000000000000000000000815260040180806020018281038252602d8152602001807f41726520796f7520676f696e6720746f2070617920666f7220746861743f202081526020017f4d696e2e2069732031204554480000000000000000000000000000000000000081525060400191505060405180910390fd5b8060008160ff1610158015610223575060028160ff1611155b151561022e57600080fd5b6000809054906101000a900473ffffffffffffffffffffffffffffffffffffffff1673ffffffffffffffffffffffffffffffffffffffff1663ccc378cf6040518163ffffffff167c0100000000000000000000000000000000000000000000000000000000028152600401602060405180830381600087803b1580156102b357600080fd5b505af11580156102c7573d6000803e3d6000fd5b505050506040513d60208110156102dd57600080fd5b810190808051906020019092919050505015610414576004543414151561030357600080fd5b33600360006101000a81548173ffffffffffffffffffffffffffffffffffffffff021916908373ffffffffffffffffffffffffffffffffffffffff16021790555081600360156101000a81548160ff021916908360ff1602179055506000809054906101000a900473ffffffffffffffffffffffffffffffffffffffff1673ffffffffffffffffffffffffffffffffffffffff1663e8399cc6346040518263ffffffff167c010000000000000000000000000000000000000000000000000000000002815260040180828152602001915050600060405180830381600087803b1580156103ef57600080fd5b505af1158015610403573d6000803e3d6000fd5b5050505061040f6106ae565b610520565b33600260006101000a81548173ffffffffffffffffffffffffffffffffffffffff021916908373ffffffffffffffffffffffffffffffffffffffff16021790555081600360146101000a81548160ff021916908360ff160217905550346004819055506000809054906101000a900473ffffffffffffffffffffffffffffffffffffffff1673ffffffffffffffffffffffffffffffffffffffff1663e8399cc6346040518263ffffffff167c010000000000000000000000000000000000000000000000000000000002815260040180828152602001915050600060405180830381600087803b15801561050757600080fd5b505af115801561051b573d6000803e3d6000fd5b505050505b5050565b60008060009054906101000a900473ffffffffffffffffffffffffffffffffffffffff1673ffffffffffffffffffffffffffffffffffffffff1663b187bd266040518163ffffffff167c010000000000000000000000000000000000000000000000000000000002815260040160206040518083038186803b1580156105a957600080fd5b505afa1580156105bd573d6000803e3d6000fd5b505050506040513d60208110156105d357600080fd5b8101908080519060200190929190505050905090565b60008060009054906101000a900473ffffffffffffffffffffffffffffffffffffffff1673ffffffffffffffffffffffffffffffffffffffff166312065fe06040518163ffffffff167c010000000000000000000000000000000000000000000000000000000002815260040160206040518083038186803b15801561066e57600080fd5b505afa158015610682573d6000803e3d6000fd5b505050506040513d602081101561069857600080fd5b8101908080519060200190929190505050905090565b600360159054906101000a900460ff1660ff16600360149054906101000a900460ff1660ff16141561082b576000809054906101000a900473ffffffffffffffffffffffffffffffffffffffff1673ffffffffffffffffffffffffffffffffffffffff16630b033ac2600260009054906101000a900473ffffffffffffffffffffffffffffffffffffffff16600360009054906101000a900473ffffffffffffffffffffffffffffffffffffffff166040518363ffffffff167c0100000000000000000000000000000000000000000000000000000000028152600401808373ffffffffffffffffffffffffffffffffffffffff1673ffffffffffffffffffffffffffffffffffffffff1681526020018273ffffffffffffffffffffffffffffffffffffffff1673ffffffffffffffffffffffffffffffffffffffff16815260200192505050600060405180830381600087803b15801561080e57600080fd5b505af1158015610822573d6000803e3d6000fd5b50505050610a79565b610853600360149054906101000a900460ff16600360159054906101000a900460ff16610a83565b15610953576000809054906101000a900473ffffffffffffffffffffffffffffffffffffffff1673ffffffffffffffffffffffffffffffffffffffff1663a34cc845600260009054906101000a900473ffffffffffffffffffffffffffffffffffffffff166040518263ffffffff167c0100000000000000000000000000000000000000000000000000000000028152600401808273ffffffffffffffffffffffffffffffffffffffff1673ffffffffffffffffffffffffffffffffffffffff168152602001915050600060405180830381600087803b15801561093657600080fd5b505af115801561094a573d6000803e3d6000fd5b50505050610a78565b61097b600360159054906101000a900460ff16600360149054906101000a900460ff16610a83565b15610a77576000809054906101000a900473ffffffffffffffffffffffffffffffffffffffff1673ffffffffffffffffffffffffffffffffffffffff1663a34cc845600360009054906101000a900473ffffffffffffffffffffffffffffffffffffffff166040518263ffffffff167c0100000000000000000000000000000000000000000000000000000000028152600401808273ffffffffffffffffffffffffffffffffffffffff1673ffffffffffffffffffffffffffffffffffffffff168152602001915050600060405180830381600087803b158015610a5e57600080fd5b505af1158015610a72573d6000803e3d6000fd5b505050505b5b5b610a81610ac1565b565b6000828060010193505060038360ff16101515610a9f57600092505b8160ff168360ff161415610ab65760019050610abb565b600090505b92915050565b6000600260006101000a81548173ffffffffffffffffffffffffffffffffffffffff021916908373ffffffffffffffffffffffffffffffffffffffff1602179055506000600360006101000a81548173ffffffffffffffffffffffffffffffffffffffff021916908373ffffffffffffffffffffffffffffffffffffffff16021790555056fea165627a7a723058205b2ee620e88bd1478dd6b9dd3da0ece486e0d7a499d588b7cc5ee81b6d235b0f0029",
  "source": "pragma solidity >=0.4.21 <0.7.0;\n\nimport \"../node_modules/openzeppelin-solidity/contracts/math/SafeMath.sol\";\n\ncontract Logic {\n\n    ////////////////////////////////// Globals ////////////////////////////////\n\n    using SafeMath for uint256;\n\n    // Game play variable funcitonality:\n    // Plays are numbered 0 - 2\n    // Paper = 0,\n    // Rock = 1,\n    // Scissors = 2\n    // Each one beats the next one in the sequence.  Paper beats rock, rock beats\n    // scissors, etc.\n\n    // Configure Data contract\n    Data data;\n    // Sets owner privilages\n    address private owner;\n\n    // Game info\n    address player1;\n    address player2;\n    uint8 play1;\n    uint8 play2;\n    uint256 bet;\n\n    constructor(address dataContract) \n        public \n        {\n        owner = msg.sender;\n        data = Data(dataContract);\n        }\n\n    ////////////////////////////////// Modifiers ////////////////////////////////\n\n    modifier checkValue() {\n        require(msg.value == requiredBet());\n        _;\n    }\n\n    modifier requireMoney() {\n        require(msg.value >= 1 ether, \"Are you going to pay for that?  Min. is 1 ETH\");\n        _;\n    }\n\n    modifier requireUnpaused() {\n        require(isPaused() == false, \"Contract is paused\");\n        _;\n    }\n\n    modifier checkPlay(uint8 play) {\n        require((play >= 0) && (play <= 2));\n        _;\n    }\n\n    ////////////////////////////////// Utilities ////////////////////////////////\n\n    function isPaused() \n        public\n        view\n        returns(bool)\n        {\n            return data.isPaused();\n        }\n\n    function requiredBet()\n        public\n        view\n        returns(uint256)\n        {\n            return data.getBalance();\n        }\n\n\n    ////////////////////////////////// Functionality ////////////////////////////////\n\n    function play(uint8 playerMove)\n        public\n        payable\n        requireUnpaused\n        requireMoney\n        checkPlay(playerMove)\n        {\n            // If there is a current game...\n            if (data.checkMove()) {\n                require(msg.value == bet);\n                player2 = msg.sender;\n                play2 = playerMove;\n                data.setBet(msg.value);\n                // Run function to check who on.\n                checkWinner();\n            // If there is NOT a current game...\n            } else {\n                player1 = msg.sender;\n                play1 = playerMove;\n                bet = msg.value;\n                data.setBet(msg.value);\n            }\n        }\n\n    // How to test who won:\n    // Increment one of the plays by 1.  If it then equals the same as the other\n    // person's play, then it wins(because each one beats the next in the cycle)\n    // If a winner still isn't found, increment the other person's play by one, and\n    // repeat the check.\n\n    function compare(uint8 a, uint8 b)\n        private\n        returns(bool)\n        {\n            // increment a by 1\n            a++;\n            // if a + 1 = 3, then loop it around the cycle to be 0\n            if (a >= 3) {\n                a = 0;\n            }\n            // compare a to b.  If a = b, a is the winner - return true\n            if (a == b) {\n                return true;\n            // else return false - no winner is determined\n            } else {\n                return false;\n            }\n        }\n\n    function checkWinner()\n        private\n        {\n            if (play1 == play2) {\n                // it's a draw!\n                // return 50% of funds to both players\n                data.draw(player1, player2);\n            }\n            else if (compare(play1, play2)) {\n                // Player1 wins\n                data.win(player1);\n            }\n            else if (compare(play2, play1)) {\n                // Player2 wins\n                data.win(player2);\n            }\n            clear();\n        }\n\n    function clear()\n        private\n        {\n            player1 = address(0);\n            player2 = address(0);\n        }\n    \n}\n\ncontract Data {\n    function isPaused() public view returns(bool);\n    function getBalance() external view returns(uint256);\n    function setBet(uint256) external;\n    function checkMove() external returns(bool);\n    function win(address) external;\n    function draw(address, address) external;\n}",
  "sourcePath": "/Users/brent/Documents/R_P_S/contracts/Logic.sol",
  "compiler": {
    "name": "solc",
    "version": "0.5.1+commit.c8a2cb62.Emscripten.clang"
  },
  "schemaVersion": "3.4.0",
  "updatedAt": "2021-05-31T08:42:54.547Z",
  "networkType": "ethereum",
  "devdoc": {
    "methods": {}
  },
  "userdoc": {
    "methods": {
      "isPaused()": {
        "notice": "/////////////////////////////// Utilities ////////////////////////////////"
      },
      "play(uint8)": {
        "notice": "/////////////////////////////// Functionality ////////////////////////////////"
      }
    }
  }
}